:020000040800F2
:1000000050070020D1000008D9000008DB000008DC
:1000100000000000000000000000000000000000E0
:10002000000000000000000000000000DD000008EB
:100030000000000000000000DF000008BB12000804
:10004000E3000008E3000008E3000008E300000804
:10005000E3000008E3000008E3000008E3000008F4
:10006000E3000008E3000008E3000008E3000008E4
:10007000E3000008E3000008E3000008E3000008D4
:10008000E3000008E3000008E3000008E3000008C4
:10009000E3000008E3000008E3000008E3000008B4
:1000A000E3000008E3000008E3000008E3000008A4
:1000B000E3000008E3000008E30000080348854669
:1000C00000F03CF80048004749180008500700209D
:1000D0000448804704480047FEE7FEE7FEE7FEE7E6
:1000E000FEE7FEE73D130008BD00000830B50B46F3
:1000F000014600202022012409E00D46D5409D4202
:1001000005D31D469540491B254695404019154687
:10011000521E002DF1DC30BDD2B201E00270401C55
:10012000491EFBD270470022F6E710B513460A4677
:1001300004461946FFF7F0FF204610BD064C012586
:10014000064E05E0E36807CC2B430C3C984710347F
:10015000B442F7D3FFF7B6FFF01D0008101E0008E9
:1001600031B500F0C7F8009C0546601C00D0641C47
:1001700000F0C0F8401BA042FAD338BDF8B5002308
:1001800093E0224601249C40A44622407ED04C6845
:10019000022C01D0122C0CD1DC08A40027183C6AD8
:1001A0005D07ED0E0F26AE40B4430E69AE40264308
:1001B0003E6205685E000324B4400F79A543BF0783
:1001C000BF0FB7402F4307604D68012D05D0022DAA
:1001D00003D0112D01D0122D0ED18568CF68A54313
:1001E000B7402F43876047686546AF430D79ED06FA
:1001F000ED0F9D403D434560C568A5438C68B44004
:100200002C43C4604C68E4004ED52B4CA5690126F4
:100210003543A561A4699D0834400094274CAD0086
:100220002F19BC689D072E0F0F25B540AC4309253B
:10023000ED06A84201D1002514E0214DA84201D1CC
:1002400001250FE01F4DA84201D102250AE01E4DF5
:10025000A84201D1032505E01C4DA84201D1042587
:1002600000E00525B5402543BD60194C25684E6862
:100270009543F60300D51543256065684E689543A0
:10028000B60300D515436560A56800E00CE04E6834
:100290009543F60200D51543A560E5684E68954381
:1002A000B60200D51543E5605B1C0A681446DA40C7
:1002B00000D066E7F8BD00000010024000000140D9
:1002C0000004004800080048000C004800100048E6
:1002D000000401400069084000D0012070474269D5
:1002E0004A4042617047002A01D0816170478162B3
:1002F00070470000014800687047000008000020B7
:1003000002480168491C0160704700000800002095
:1003100010B506480168102211430160002000F06A
:1003200007F800F017F8002010BD00000020024080
:1003300010B5044600F06EF97D21C900FFF7D6FE26
:1003400000F060FD00222146501E00F025F800203C
:1003500010BD000008B50F48816901221143816179
:10036000816911400091C26901040A43C261C069F8
:100370000022084000901146501F00F00DF80022A6
:100380001146901E00F008F800221146501E00F0A1
:1003900003F808BD0010024010B500F0B5FE10BD16
:1003A000F8B504460068434DC00352D5E8690026FD
:1003B000C00007D4E96928040143E961E969014003
:1003C000012600913C480168C90510D401688215D6
:1003D00011430160FFF78EFF074604E0FFF78AFF35
:1003E000C01B642824D834480068C005F6D5286AA4
:1003F00003273F02384020D06168394081421CD039
:10040000286A2A6AB843012109040A432A622A6A2F
:100410008A432A622862C0070FD0FFF76BFF009063
:1004200008E0FFF767FF0099411A2448814201D98B
:100430000320F8BD286A8007F3D5286A6168B843AD
:1004400008432862002E04D0E86901210907884387
:10045000E8612078C00705D0286BA168800880007B
:10046000084328632078800706D5286B03210904F8
:100470008843E168084328632068400306D5286B59
:100480000321890488432169084328632078800672
:1004900005D5286B102188436169084328632088AB
:1004A000400505D5286B40218843A169084328638E
:1004B0000020F8BD001002400070004088130000CA
:1004C000F8B505464E480E460068C007C00FB0425A
:1004D0000AD24B480168490849003143016000686D
:1004E000C007C00FB04270D12878464C800705D5B0
:1004F0006068F0218843A968084360602878C007D5
:1005000053D06868012817D0022818D0032819D0C2
:1005100021688907002958DA616889088900014340
:100520006160FFF7E7FE69680746012913D00229D9
:100530001DD0032927D034E021688903EAE7216828
:100540008901E7E7616BC903E4E7FFF7D3FEC11B4D
:100550002D48814223D860680007800F0128F4D11C
:1005600023E0FFF7C7FEC11B2748814217D8606808
:100570000007800F0228F4D117E0FFF7BBFEC11B74
:10058000214881420BD860680007800F0328F4D10E
:100590000BE0FFF7AFFEC11B1B48814201D90320CE
:1005A000F8BD60680007800FF3D115480168C907DE
:1005B000C90FB1420BD901684908490031430160B4
:1005C0000068C007C00FB04201D00120F8BD2878F4
:1005D000400706D56068072109028843E968084397
:1005E000606000F02DF86168084A0906090F515C47
:1005F000C840074908600020FFF79AFE0020F8BDB8
:10060000002002400010024088130000D81D00089E
:100610000C00002001480068704700000C0000201A
:100620000448054900684968044A4905490F515C76
:10063000C84070470C00002000100240E81D000870
:1006400030B516A30FCB89B06C460FC417A30FCBE0
:100650000FC41A494A680C20144604401848042C58
:1006600005D0184B082C04D00C2C00D1184609B02A
:1006700030BD9402240F6D462C5DC96A04AD090794
:10068000090FD203695C920F022A02D0032A00D11B
:100690001846FFF72BFD6043E9E70000020304055D
:1006A000060708090A0B0C0D0E0F101001020304B7
:1006B00005060708090A0B0C0D0E0F10001002406A
:1006C00000127A00006CDC02FEB504460078F04EA1
:1006D000F04DC00748D068680007800F01281FD080
:1006E00068680007800F022804D16868C003800F83
:1006F000022815D06168012919D001208004002941
:1007000001D0052917D02968B143296029688143A0
:100710002960606800281BD0FFF7ECFD074613E056
:100720002868800320D56068002876D01CE02868FF
:1007300030432860EDE7296801432960F7E7FFF7B8
:10074000D9FDC01B642869D828688003F7D50BE061
:10075000FFF7D0FD074604E0FFF7CCFDC01B64287F
:10076000F1D828688003F7D4207880073ED56868E0
:100770000007800F14D068680007800F022804D19A
:100780006868C003800F01280AD0E0680028286844
:100790001DD0012108432860FFF7ACFD07460BE0A0
:1007A000286880070BD5E068012836D107E0FFF7FD
:1007B000A1FDC01B0228C6D828688007F7D5286885
:1007C000F82188432169C900084328600EE04008E9
:1007D00040002860FFF78EFD074604E0FFF78AFD22
:1007E000C01B0228AFD828688007F7D420780007FC
:1007F00024D5E0690028686A11D0012108436862A5
:10080000FFF778FD074604E0FFF774FDC01B0228E0
:1008100099D8686A8007F7D510E036E1D1E0400842
:1008200040006862FFF766FD074604E0FFF762FDDF
:10083000C01B022887D8686A8007F7D4207804276D
:100840004007002861DA00200190E869C00008D460
:10085000E969B8060143E961E969014001200091B5
:1008600001908D480168C90511D4016882151143B2
:100870000160FFF73FFD009005E0FFF73BFD0099A9
:10088000401A642897D884480068C005F5D5A06848
:1008900001280AD0002801D0052811D0286A400874
:1008A00040002862286AB84302E0286A0121084310
:1008B0002862A068002812D0FFF71CFD00900AE013
:1008C000286A38432862F0E7FFF714FD0099411ABF
:1008D0007248814275D8286A8007F5D50DE0FFF788
:1008E00009FD009006E0FFF705FD0099411A6B48ED
:1008F000814266D8286A8007F5D40198002804D080
:10090000E969012000078143E9612078C00635D5F7
:10091000606901280CD0401D686B24D0384368639F
:10092000686B400840006863FFF7E4FC074622E07C
:10093000686B38436863686B012108436863FFF79D
:10094000D9FC074604E0FFF7D5FCC01B022838D8C5
:10095000686B8007F7D5686BF8218843A169C900E7
:10096000084368630AE0B8436863F4E7FFF7C2FC32
:10097000C01B022825D8686B8007F7D42078800632
:1009800037D568680007800F032813D06868000710
:10099000800F022804D16868C003800F032809D0A3
:1009A000206A0028686B16D030436863FFF7A2FC0A
:1009B00006460CE0686BC0031BD5206A012864D191
:1009C00017E05BE0FFF796FC801B022856D8686BA7
:1009D000C003F7D50DE0B0436863FFF78BFC064614
:1009E00004E0FFF787FC801B022847D8686BC00330
:1009F000F7D4606A002846D069680907890F022980
:100A000043D0012636060228286805D0B043286066
:100A1000FFF770FC044633E0B0432860FFF76AFC40
:100A2000074604E0FFF766FCC01B022826D82868AA
:100A30008001F7D4E86A216B000900010843E862ED
:100A4000A16AE06A084369687B22D20391430843A4
:100A50006860286830432860FFF74CFC044604E0D7
:100A6000FFF748FC001B022808D828688001F7D54A
:100A700009E0FFF73FFC001B022801D90320FEBD5F
:100A800028688001F5D40020FEBD0120FEBD0000D5
:100A900000000100001002400070004088130000B8
:100AA000F8B5040007D0002625464035A662687FC9
:100AB000002802D005E00120F8BD2E77204600F086
:100AC0004BF802236B772068016840229143016054
:100AD0000721E0680902884201D9002201E00122D1
:100AE00012030F273F02B84202D0884200D0A6620C
:100AF000276B002F05D1884201D9236301E0012033
:100B00002063A16860686369084321691943084349
:100B10000123A1695B0219400843E1690843216A86
:100B20000843A16A084321680860616B606AA36991
:100B300008431B0C0427E1683B4019430843216824
:100B4000104348602068C1697A029143C1612666FA
:100B5000012068770020F8BD00B500680D4987B016
:100B6000884215D10C48826981140A4382618069E8
:100B7000084005903820009002200190012002904A
:100B8000032003900020049069460448FFF7F6FA1A
:100B900007B000BD003001400010024000040048D2
:100BA000FFB5044683B00120254640350090287FDC
:100BB00000270E4601280FD001202877FFF79AFB67
:100BC0000190687F616801280DD0CA1FFD3A08D1E5
:100BD000A168002905D102E0022007B0F0BD042879
:100BE00001D00227FAE0002E7CD005980028FBD027
:100BF00006980028F8D0687F042801D0052068777F
:100C000000202066059921640699E9800699A9804B
:100C1000A6630699E1870699A187E064206507230A
:100C2000E1681B02994202D8E888012806D92068A9
:100C30004268012109038A43426005E02068416857
:100C4000012212031143416020680168490603D460
:100C50000168402211430160E1686068994242D90D
:100C6000002802D0E08F012835D121683088C86083
:100C7000E08F401EE087B61C2DE0009800280ED0C3
:100C8000E08F00280BD020688168890707D531885C
:100C9000C160E08F401EE0870020B61C0090E8880D
:100CA00000280ED020688168C9070AD0C06805995D
:100CB00008800598801C0590E888401EE880012087
:100CC00000900C98401C06D0FFF714FB0199411AC4
:100CD0000C9881426DD2E08F0028CED1E8880028A0
:100CE000CBD16EE079E0002802D0E08F012862D1FC
:100CF000E08F012807D921683088C860E08F801E06
:100D0000E087B61C57E0216830780873E08F401EFA
:100D1000E087761C4FE00098002818D0E08F00286C
:100D200015D020688168890711D5E18F012906D97E
:100D30003188C160E08F801EE087B61C05E0317805
:100D40000173E08F401EE087761C00200090E88849
:100D5000002824D020688168C90720D0E9880129AB
:100D600012D9C068059908800598801C0590E8880C
:100D7000801EE880E88801280FD820684168012299
:100D800012031143416008E0017B0598017005984A
:100D9000401C0590E888401EE880012000900C98D7
:100DA000401C08D0FFF7A6FA0199401A0C99884216
:100DB00001D3032712E0E08F0028ACD1E888002897
:100DC000A9D12046019A0C9900F0C0F9002801D061
:100DD00020202066206E002800D00127012068779F
:100DE000002028773846F8E60422044904280869D8
:100DF00002D09043086170471043FBE700E000E039
:100E000070470000094910B5401E884201D90120F1
:100E100010BD074C60610321081F00F075F9002028
:100E2000A06107202061002010BD0000FFFFFF002F
:100E300000E000E010B5FFF7E3FF10BD70B504005F
:100E400005D025466035687A002802D006E00120EA
:100E500070BD00202872204600F026F82420687219
:100E600020680168490849000160204600F038FB0D
:100E70000128EDD0606A002802D0204600F08CFAEC
:100E8000206841680922D20291434160206881684C
:100E90002A22914381602068016801221143016088
:100EA000204600F0DFFA70BD00B500680E4987B03B
:100EB000884216D10D48C269012149040A43C26122
:100EC000C069084005900C2000900220019000208D
:100ED000029003900120049009206946C006FFF7A4
:100EE0004DF907B000BD0000004400400010024072
:100EF000FFB5064604466036707A83B00D4620285A
:100F000058D1002D0CD00598002809D00120A168E7
:100F10000003814207D12069002804D1E80702D0EC
:100F2000012007B0F0BD307A012843D00120307293
:100F30000020E06621207072FFF7DCF9019027465F
:100F40004037059838820598788218E0788A401EE4
:100F5000788206980090002280212046019B00F0B4
:100F60008FFB002818D10120A1680003814202D123
:100F70002069002812D02168287808856D1C788A9D
:100F80000028E3D106980090002240212046019BD2
:100F900000F076FB002808D00320C2E728882168EB
:100FA000C005C00D0885AD1CE9E720207072002047
:100FB0003072B6E70220B4E7F0B52F4887B0426937
:100FC0000121C9040A43426142690A40059242690B
:100FD000C9000A43426142690A40059242694911C7
:100FE0000A43426142690A400592426949000A4344
:100FF00042614069002208400590212109204901F1
:10100000C006FFF770F9FF261C4F0136002231465B
:101010003846FFF768F970010090194800240190E4
:10102000694602943846FFF7A9F820200090012570
:1010300009200294694601950394C006FFF79EF8C3
:1010400060206A4631C269463846FFF797F8019535
:1010500069463846009602950394FFF78FF8A80278
:10106000009009200195694602950394C006FFF798
:1010700085F807B0F0BD00000010024000080048ED
:101080000000211010B511480F490160FF21053102
:10109000416000210722816012020161C2600122C9
:1010A000416152028261016230224162C261816209
:1010B0000722C262016308214163FFF7F1FC0028A7
:1010C00000D0FEE710BD0000003001407800002095
:1010D00010B50C480A490160E12149024160002134
:1010E0008160C16001618161C1610C220162426164
:1010F0004162FFF7A3FE002800D0FEE710BD00000C
:1011000000440040DC0000208307FF22DB0E9A40F1
:101110008907090E994000280BDA0007000F0838EC
:10112000830808489B001818C36993430B43C361A5
:101130007047830804489B001B18186890430843B5
:101140001860704700ED00E000E400E0F8B50F46DD
:101150000B4615460092032104460022C90200F006
:101160001BF82026002812D13B4600228021204671
:10117000009500F05CF8002809D103213B460022CD
:1011800049022046009500F007F8002803D0206EA1
:10119000304320660320F8BDF8B51D4617460E46BD
:1011A00004463DE0032149028E4205D1002F03D1C0
:1011B000017B684601700078681C31D0002D05D095
:1011C000FFF798F80699401AA84229D32068416889
:1011D000E022914341606068C11FFD390CD10121BB
:1011E000A068C903884202D04911884204D120680E
:1011F00001684022914301600120A16A40038142BD
:1012000007D121680A6882430A6021680A6802439C
:101210000A60012040346077002020770320F8BD69
:10122000206881683140B942BCD10020F8BDF8B5D2
:101230001D4617460E46044633E0681C31D0002D8B
:1012400005D0FFF757F80699401AA84229D320681D
:101250004168E022914341606068C11FFD390CD1B3
:101260000121A068C903884202D04911884204D1F3
:10127000206801684022914301600120A16A400377
:10128000814207D121680A6882430A6021680A689E
:1012900002430A6001204034607700202077032059
:1012A000F8BD206881683046884304D00020B842E9
:1012B000C3D10020F8BD0120F9E710B5FFF720F8F1
:1012C000FFF7B8FD10BD30B599B00120052101919F
:1012D000009001040A9105210225C9040C9009958A
:1012E0000B916846FFF7F0F9002800D0FEE70720D1
:1012F00000240D900F9401210E9510940DA8FFF776
:10130000DFF8002800D0FEE711A811951494FFF72C
:1013100047F8002800D0FEE7FFF77CF97D21C900DF
:10132000FEF7E4FEFFF76EFD0420FFF75DFD0022EF
:101330001146501EFFF730F819B030BD1248016851
:101340000122114301604168104A11404160016867
:101350000F4A11400160016801229204914301602B
:1013600041683F22120491434160C16A09090901A1
:10137000C162016B074A11400163416B4908490092
:101380004163002181607047001002400CB8FF08E3
:10139000FFFFF6FEACFEF0FF10B5818CC90707D049
:1013A00001684A6801235B049A43836A1A434A60CE
:1013B000818C890707D501684A6801231B049A4379
:1013C000C36A1A434A60818C490707D501684A6895
:1013D00001239B049A43036B1A434A60818C0907DB
:1013E00007D501684A680123DB039A43436B1A431C
:1013F0004A60818CC90607D50268916801231B03E6
:101400009943836B19439160818C890607D50168E4
:101410008A6801235B039A43C36B1A438A60818CF9
:10142000490612D503685A6801210905046C8A43EC
:1014300022435A60026C8A4207D102685168032332
:101440005B059943436C19435160818C090607D5AC
:1014500001684A680123DB04806C9A4302434A60B6
:1014600010BD0000F8B500250446C566FEF742FF32
:10147000064617492068884205D01649884202D09E
:10148000154988421DD10068144F000709D5012174
:101490003346002249052046009700F0F1F8002865
:1014A0000DD12068006840070BD50121334600228A
:1014B00089052046009700F0E3F8002801D00320BA
:1014C000F8BD202060346072A07225720020F8BD43
:1014D000003801400044004000480040FFFFFF0189
:1014E000F8B504462369A268E5691A4363691020C8
:1014F0002B43002125681A432B680E46544F3B406E
:1015000013432B6023685A6803252D03AA43E5681B
:101510002A435A60236AA26925681A43AB680B27DD
:101520003F02BB431343AB604A4F25684A4B02035B
:10153000BD420AD11B6B9B079B0F3AD0012B25D0D4
:10154000022B25D0032B35D11EE0444FBD420AD1DA
:101550001B6B03273F043B402BD09B1A16D09B1AD2
:1015600016D09B1A0EE03E4FBD4213D11F6B0323D2
:101570009B041F401DD001239B04FF1A06D0FF1AB5
:1015800006D0FB1A002B15D1022013E0042011E035
:1015900008200FE0334B9D420BD0334B9D4208D0C7
:1015A000324B9D4205D0324B9D4202D0314B9D4281
:1015B00000D100200123E769DB039F4222D10028EC
:1015C0000CD002280DD0042813D0082817D00126EB
:1015D0000A0912010807400F10432EE0FFF720F818
:1015E00009E06168244A48088018FEF77FFD81B24F
:1015F000EEE7FFF725F8616840004A08F4E7616804
:101600004808F1E7002808D0022809D004280CD0A7
:10161000082815D001263046F8BDFFF701F806E08E
:101620006168164A480880180DE0FFF709F86168FC
:101630004A088018FEF75AFD80B22168C860EAE7C0
:1016400061684808C018FEF751FD80B2E860E2E723
:10165000F369FFEF003801400010024000440040F1
:1016600000480040004C0040005000400014014081
:1016700000180140001C01400024F40000127A0010
:10168000FFB581B017460E4604460A9D1DE0681C52
:101690001BD0002D05D0FEF72DFE0499401AA8425C
:1016A00013D920680168FF22A132914301602068AC
:1016B0008168490849008160202060346072A0720E
:1016C00000202072032005B0F0BD2068C1693046BB
:1016D000884304D00020B842D9D00020F3E701208D
:1016E000F9E7FEE70FB410B503A9044B044A0298CA
:1016F00000F017F810BC08BC04B01847F517000834
:101700001000002002E008C8121F08C1002AFAD108
:1017100070477047002001E001C1121F002AFBD171
:101720007047FFB581B00546002706E025280AD09E
:10173000049A039990476D1C7F1C28780028F5D1E6
:10174000384605B0F0BD002269786D1C10462E2980
:1017500013D1697804226D1C2A2909D102996D1CC4
:1017600001C9029109E00A235843303808186D1C5A
:1017700029780B46303B092BF5D92B78002BDFD08D
:10178000632B07D0732B10D0049A18460399904707
:101790007F1C2DE002996C460B782370091D029185
:1017A000002161706E46012104E0029940C9029156
:1017B0000021C94352070AD5002400E0641C84427A
:1017C0000DDA8C42FADB325D002AF7D107E0002403
:1017D00000E0641C8C42FCDB305D0028F9D13F192D
:1017E00004E03078049A761C03999047641EF8D27E
:1017F0006D1CA2E713B501231A4669460248FFF79C
:1018000077FB00981CBD0000DC00002010B500F044
:10181000EBF8002812D100221146104600F0BCF966
:1018200007488078C10604D50649072000F0D6F99C
:1018300004E0000702D5022000F09AF9012010BD53
:101840005400002014000020FEF762FDFFF73BFD6E
:10185000FFF7B2FBFFF73CFCFFF714FCFF20F5306D
:10186000FEF77EFC0CA0FFF73DFF00F0E3F9114806
:101870000068007900F00CFA00250F4CFFF7C6FF56
:101880000128FBD120787228F8D10B490BA0FFF773
:1018900029FF2570F2E7000074686973207465738E
:1018A000742069732073706920746573747E2121BC
:1018B0000D0A0000000000201400002025730D0A0E
:1018C000000000000149002008707047040000205B
:1018D000F8B50F460646104C00F072F8442000F0B0
:1018E000D9F800F091F80546FF2804D000F084F8FC
:1018F000641EF1D1FEE7002E05D000F061F83946F4
:10190000304600F0A3F800F077F8002CF2D003493D
:10191000012008702846F8BD1027000004000020B0
:1019200010B500210846FFF7D3FF10BDF8B50D4CE8
:101930001D4616460746002902D104E0FFF7F0FFD6
:1019400020780028FAD000F03BF8384600F0A2F8E2
:101950002946304600F07AF800F04EF8002020705A
:10196000F8BD00000400002070B50D460646094C85
:1019700001E0FFF7D5FF20780028FAD000F020F82A
:101980002946304600F0A4F800F036F80020207018
:1019900070BD00000400002070B51C461546FFF71E
:1019A000E3FF21462846FFF793FF70BD10B50122E3
:1019B00011020248FEF797FC10BD00000008004825
:1019C00010B50121092000228902C006FEF78BFC18
:1019D00010BD000010B5FF21002201310148FEF7C3
:1019E00082FC10BD0008004810B540210148FEF7F8
:1019F00071FC10BD0008004810B5012209209102B9
:101A0000C006FEF770FC10BD0EB5002069460872D6
:101A10000A200090012301AA02A90648FFF7C0F896
:101A2000002803D0552104A0FFF75BFE684600792B
:101A30000EBD0000780000202E2E5C5372635C7295
:101A40006164696F5F68616C2E63000030B59BB0A4
:101A50000C460546142101A8FEF765FB0A200090FC
:101A60002B46224601A90548FFF79AF8002803D023
:101A70006C2103A0FFF735FE1BB030BD78000020BD
:101A80002E2E5C5372635C726164696F5F68616C77
:101A90002E63000001B582B00A200090012301AA44
:101AA00002A90548FFF77CF8002803D0482103A0CD
:101AB000FFF717FE0EBD0000780000202E2E5C53AD
:101AC00072635C726164696F5F68616C2E630000B1
:101AD00000B59BB00A220346009201AA0548FFF711
:101AE0005FF8002803D0602103A0FFF7FAFD1BB0C8
:101AF00000BD0000780000202E2E5C5372635C72E3
:101B00006164696F5F68616C2E630000F8B5174D02
:101B100004462E46143E23E0641C102F1ED80020DD
:101B200004E021782954401CC0B2641CB842F8D3A8
:101B300000231A460D493846FFF72EFFFF2801D033
:101B40000220F8BDFFF750FF002809D100221146FE
:101B5000104600F021F8B079000701D50420F8BD47
:101B60002778002FD8D10020F8BD000068000020A1
:101B700010B5084C152121706070234602221946C9
:101B80001046FFF709FF204621781438017061786C
:101B9000417010BD6800002010B50F4C2023237049
:101BA0006070A170E2702346082219460420FFF7F6
:101BB000F3FE204621781438017061784170A178D5
:101BC0008170E178C1702179017161794171A179E8
:101BD0008171E179C17110BD6800002010B50B461C
:101BE000024600217720FFF7A1FE10BD10B5FFF7D8
:101BF000DDFE0420FEF7B4FAFFF7ECFE0420FEF74A
:101C0000AFFAFFF75FFE10BDF8B5094C3227079E0B
:101C1000069D27706070A170100AE07022716371D8
:101C2000A571E67121460820FFF79EFEF8BD000071
:101C30006800002070B500F023F80022114610461D
:101C4000FFF7AAFF09250D4CED06FF26F5362068A3
:101C50000068FFF75BFF002809D020212846FEF727
:101C60003EFB3046FEF77CFA00F00AF8EFE7002270
:101C700011461046FFF790FF70BD000000000020E5
:101C800010B5FFF7B3FFFF20F530FEF769FA10BD7E
:101C90001CB50022044611461046FFF77DFF0821BF
:101CA000009100230191072219462046FFF7ACFF5F
:101CB000092001222021C006FEF715FB1CBD0702EA
:101CC0000100018CBA8008134B480000674B0006E6
:101CD000110002005200051100010360061101020B
:101CE0000001180811020400000000000511100195
:101CF0000431071111030001B42B05111201060272
:101D0000051112010F041011200C000200070186BA
:101D1000A0018CBA800006051120010C4D0C112089
:101D2000081801800803800020200D1120092201DD
:101D30004501934C00CA02C20B1120072C043680C7
:101D4000220F50800511200135E20D1120093811B4
:101D500047470002FFFF002A0D11200942A402D6C6
:101D600083014D0180FF051120014C000511200168
:101D70004E4005112001510A1011210C00CCA13058
:101D8000A021D1B9C9EA0512111011210C0C0A04C5
:101D900015FC0300CCA130A021D11011210C18B9E1
:101DA000C9EA0512110A0415FC03000511220103FA
:101DB0003D0B112307002C0E0B040C73030C114078
:101DC0000800410CEC4E4EC520FE0000BE1C000871
:101DD0000007030000F00000000000000000000009
:101DE00001020304060708090000000001020304C1
:101DF000101E000800000020140000000417000856
:101E0000241E0008140000203C07000014170008DE
:101E1000CC1D0008000000000000000000127A0045
:041E200000000000BE
:04000005080000BD32
:00000001FF
